{
  "contractName": "MetaAxPresale",
  "abi": [
    {
      "inputs": [
        {
          "internalType": "address payable",
          "name": "tokenAddr",
          "type": "address"
        }
      ],
      "stateMutability": "nonpayable",
      "type": "constructor"
    },
    {
      "anonymous": false,
      "inputs": [
        {
          "indexed": true,
          "internalType": "address",
          "name": "previousOwner",
          "type": "address"
        },
        {
          "indexed": true,
          "internalType": "address",
          "name": "newOwner",
          "type": "address"
        }
      ],
      "name": "OwnershipTransferred",
      "type": "event"
    },
    {
      "inputs": [],
      "name": "_agent",
      "outputs": [
        {
          "internalType": "uint8",
          "name": "bnbRewardPercent",
          "type": "uint8"
        },
        {
          "internalType": "uint8",
          "name": "mtaxRewardPercent",
          "type": "uint8"
        }
      ],
      "stateMutability": "view",
      "type": "function",
      "constant": true
    },
    {
      "inputs": [],
      "name": "_lock",
      "outputs": [
        {
          "internalType": "uint256",
          "name": "min",
          "type": "uint256"
        },
        {
          "internalType": "uint256",
          "name": "max",
          "type": "uint256"
        },
        {
          "internalType": "uint256",
          "name": "lockL",
          "type": "uint256"
        },
        {
          "internalType": "uint256",
          "name": "lockM",
          "type": "uint256"
        },
        {
          "internalType": "uint256",
          "name": "lockH",
          "type": "uint256"
        }
      ],
      "stateMutability": "view",
      "type": "function",
      "constant": true
    },
    {
      "inputs": [],
      "name": "_price",
      "outputs": [
        {
          "internalType": "uint256",
          "name": "publishN",
          "type": "uint256"
        },
        {
          "internalType": "uint256",
          "name": "publishD",
          "type": "uint256"
        },
        {
          "internalType": "uint8",
          "name": "discount",
          "type": "uint8"
        },
        {
          "internalType": "uint8",
          "name": "discountL",
          "type": "uint8"
        },
        {
          "internalType": "uint8",
          "name": "discountH",
          "type": "uint8"
        }
      ],
      "stateMutability": "view",
      "type": "function",
      "constant": true
    },
    {
      "inputs": [],
      "name": "endTime",
      "outputs": [
        {
          "internalType": "uint256",
          "name": "",
          "type": "uint256"
        }
      ],
      "stateMutability": "view",
      "type": "function",
      "constant": true
    },
    {
      "inputs": [],
      "name": "geUnlockTime",
      "outputs": [
        {
          "internalType": "uint256",
          "name": "",
          "type": "uint256"
        }
      ],
      "stateMutability": "view",
      "type": "function",
      "constant": true
    },
    {
      "inputs": [],
      "name": "ico",
      "outputs": [
        {
          "internalType": "uint256",
          "name": "remaining",
          "type": "uint256"
        },
        {
          "internalType": "uint256",
          "name": "investorCount",
          "type": "uint256"
        },
        {
          "internalType": "uint256",
          "name": "amountLimit",
          "type": "uint256"
        },
        {
          "internalType": "uint256",
          "name": "curPrice",
          "type": "uint256"
        },
        {
          "internalType": "uint256",
          "name": "stakedMtax",
          "type": "uint256"
        },
        {
          "internalType": "uint256",
          "name": "stakedBNB",
          "type": "uint256"
        },
        {
          "internalType": "uint256",
          "name": "stakedLP",
          "type": "uint256"
        },
        {
          "internalType": "uint256",
          "name": "spentBonus",
          "type": "uint256"
        }
      ],
      "stateMutability": "view",
      "type": "function",
      "constant": true
    },
    {
      "inputs": [
        {
          "internalType": "uint256",
          "name": "time",
          "type": "uint256"
        }
      ],
      "name": "lock",
      "outputs": [],
      "stateMutability": "nonpayable",
      "type": "function"
    },
    {
      "inputs": [],
      "name": "metaAx",
      "outputs": [
        {
          "internalType": "contract IMetaAX",
          "name": "",
          "type": "address"
        }
      ],
      "stateMutability": "view",
      "type": "function",
      "constant": true
    },
    {
      "inputs": [],
      "name": "owner",
      "outputs": [
        {
          "internalType": "address",
          "name": "",
          "type": "address"
        }
      ],
      "stateMutability": "view",
      "type": "function",
      "constant": true
    },
    {
      "inputs": [],
      "name": "pair",
      "outputs": [
        {
          "internalType": "contract IPancakePair",
          "name": "",
          "type": "address"
        }
      ],
      "stateMutability": "view",
      "type": "function",
      "constant": true
    },
    {
      "inputs": [],
      "name": "renounceOwnership",
      "outputs": [],
      "stateMutability": "nonpayable",
      "type": "function"
    },
    {
      "inputs": [
        {
          "internalType": "address",
          "name": "newOwner",
          "type": "address"
        }
      ],
      "name": "transferOwnership",
      "outputs": [],
      "stateMutability": "nonpayable",
      "type": "function"
    },
    {
      "inputs": [],
      "name": "uniswapV2Router",
      "outputs": [
        {
          "internalType": "contract IUniswapV2Router02",
          "name": "",
          "type": "address"
        }
      ],
      "stateMutability": "view",
      "type": "function",
      "constant": true
    },
    {
      "inputs": [],
      "name": "unlock",
      "outputs": [],
      "stateMutability": "nonpayable",
      "type": "function"
    },
    {
      "inputs": [
        {
          "internalType": "uint256",
          "name": "lifetime",
          "type": "uint256"
        },
        {
          "internalType": "uint256",
          "name": "cap",
          "type": "uint256"
        }
      ],
      "name": "setPresalePolicy",
      "outputs": [],
      "stateMutability": "nonpayable",
      "type": "function"
    },
    {
      "inputs": [
        {
          "internalType": "uint8",
          "name": "bnbRewardPercent",
          "type": "uint8"
        },
        {
          "internalType": "uint8",
          "name": "mtaxRewardPercent",
          "type": "uint8"
        }
      ],
      "name": "setAgentPolicy",
      "outputs": [],
      "stateMutability": "nonpayable",
      "type": "function"
    },
    {
      "inputs": [
        {
          "internalType": "uint256",
          "name": "publishN",
          "type": "uint256"
        },
        {
          "internalType": "uint256",
          "name": "publishD",
          "type": "uint256"
        },
        {
          "internalType": "uint8",
          "name": "discount",
          "type": "uint8"
        },
        {
          "internalType": "uint8",
          "name": "discountL",
          "type": "uint8"
        },
        {
          "internalType": "uint8",
          "name": "discountH",
          "type": "uint8"
        }
      ],
      "name": "setDiscountPolicy",
      "outputs": [],
      "stateMutability": "nonpayable",
      "type": "function"
    },
    {
      "inputs": [
        {
          "internalType": "uint256",
          "name": "lockL",
          "type": "uint256"
        },
        {
          "internalType": "uint256",
          "name": "lockM",
          "type": "uint256"
        },
        {
          "internalType": "uint256",
          "name": "lockH",
          "type": "uint256"
        }
      ],
      "name": "setLockPolicy",
      "outputs": [],
      "stateMutability": "nonpayable",
      "type": "function"
    },
    {
      "inputs": [],
      "name": "queryState",
      "outputs": [
        {
          "components": [
            {
              "internalType": "uint256",
              "name": "remaining",
              "type": "uint256"
            },
            {
              "internalType": "uint256",
              "name": "investorCount",
              "type": "uint256"
            },
            {
              "internalType": "uint256",
              "name": "amountLimit",
              "type": "uint256"
            },
            {
              "internalType": "uint256",
              "name": "curPrice",
              "type": "uint256"
            },
            {
              "internalType": "uint256",
              "name": "stakedMtax",
              "type": "uint256"
            },
            {
              "internalType": "uint256",
              "name": "stakedBNB",
              "type": "uint256"
            },
            {
              "internalType": "uint256",
              "name": "stakedLP",
              "type": "uint256"
            },
            {
              "internalType": "uint256",
              "name": "spentBonus",
              "type": "uint256"
            }
          ],
          "internalType": "struct MetaAxPresale.PresaleStat",
          "name": "prsStat",
          "type": "tuple"
        },
        {
          "components": [
            {
              "internalType": "uint256",
              "name": "publishN",
              "type": "uint256"
            },
            {
              "internalType": "uint256",
              "name": "publishD",
              "type": "uint256"
            },
            {
              "internalType": "uint8",
              "name": "discount",
              "type": "uint8"
            },
            {
              "internalType": "uint8",
              "name": "discountL",
              "type": "uint8"
            },
            {
              "internalType": "uint8",
              "name": "discountH",
              "type": "uint8"
            }
          ],
          "internalType": "struct MetaAxPresale.PricePolicy",
          "name": "price",
          "type": "tuple"
        },
        {
          "components": [
            {
              "internalType": "uint256",
              "name": "min",
              "type": "uint256"
            },
            {
              "internalType": "uint256",
              "name": "max",
              "type": "uint256"
            },
            {
              "internalType": "uint256",
              "name": "lockL",
              "type": "uint256"
            },
            {
              "internalType": "uint256",
              "name": "lockM",
              "type": "uint256"
            },
            {
              "internalType": "uint256",
              "name": "lockH",
              "type": "uint256"
            }
          ],
          "internalType": "struct MetaAxPresale.LockPolicy",
          "name": "lockout",
          "type": "tuple"
        },
        {
          "components": [
            {
              "internalType": "uint256",
              "name": "amount",
              "type": "uint256"
            },
            {
              "internalType": "uint256",
              "name": "lp",
              "type": "uint256"
            },
            {
              "internalType": "uint256",
              "name": "bnb",
              "type": "uint256"
            },
            {
              "internalType": "uint256",
              "name": "reservedAmount",
              "type": "uint256"
            },
            {
              "internalType": "uint256",
              "name": "reservedBNB",
              "type": "uint256"
            },
            {
              "internalType": "uint256",
              "name": "reservedLP",
              "type": "uint256"
            },
            {
              "internalType": "uint256",
              "name": "regTime",
              "type": "uint256"
            },
            {
              "internalType": "uint256",
              "name": "lockout",
              "type": "uint256"
            }
          ],
          "internalType": "struct MetaAxPresale.Investor",
          "name": "investor",
          "type": "tuple"
        }
      ],
      "stateMutability": "view",
      "type": "function",
      "constant": true
    },
    {
      "inputs": [
        {
          "internalType": "uint256",
          "name": "amount",
          "type": "uint256"
        },
        {
          "internalType": "uint256",
          "name": "lockPeriod",
          "type": "uint256"
        }
      ],
      "name": "lookupPreStake",
      "outputs": [
        {
          "internalType": "uint256",
          "name": "totalBnb",
          "type": "uint256"
        },
        {
          "internalType": "uint256",
          "name": "liqBnb",
          "type": "uint256"
        },
        {
          "internalType": "uint256",
          "name": "additionalBnb",
          "type": "uint256"
        }
      ],
      "stateMutability": "view",
      "type": "function",
      "constant": true
    },
    {
      "inputs": [
        {
          "internalType": "uint256",
          "name": "amount",
          "type": "uint256"
        },
        {
          "internalType": "uint256",
          "name": "lockPeriod",
          "type": "uint256"
        },
        {
          "internalType": "address",
          "name": "recommender",
          "type": "address"
        }
      ],
      "name": "requestPreStake",
      "outputs": [
        {
          "internalType": "uint256",
          "name": "",
          "type": "uint256"
        }
      ],
      "stateMutability": "payable",
      "type": "function",
      "payable": true
    },
    {
      "inputs": [
        {
          "internalType": "address",
          "name": "addr",
          "type": "address"
        },
        {
          "internalType": "bool",
          "name": "yn",
          "type": "bool"
        }
      ],
      "name": "setAgent",
      "outputs": [],
      "stateMutability": "nonpayable",
      "type": "function"
    },
    {
      "inputs": [
        {
          "internalType": "address",
          "name": "addr",
          "type": "address"
        }
      ],
      "name": "isAgent",
      "outputs": [
        {
          "internalType": "bool",
          "name": "",
          "type": "bool"
        }
      ],
      "stateMutability": "view",
      "type": "function",
      "constant": true
    },
    {
      "inputs": [],
      "name": "withdrawLP",
      "outputs": [
        {
          "internalType": "uint256",
          "name": "",
          "type": "uint256"
        }
      ],
      "stateMutability": "nonpayable",
      "type": "function"
    },
    {
      "inputs": [],
      "name": "getPresaleRemainTime",
      "outputs": [
        {
          "internalType": "uint256",
          "name": "",
          "type": "uint256"
        }
      ],
      "stateMutability": "view",
      "type": "function",
      "constant": true
    },
    {
      "inputs": [],
      "name": "withdrawAll",
      "outputs": [],
      "stateMutability": "nonpayable",
      "type": "function"
    }
  ],
  "bytecode": "0x60c0604052604051806101000160405280620d2f00815260200160008152602001662386f26fc1000081526020016000815260200160008152602001600081526020016000815260200160008152506006600082015181600001556020820151816001015560408201518160020155606082015181600301556080820151816004015560a0820151816005015560c0820151816006015560e0820151816007015550506040518060a001604052806001815260200161c3508152602001603260ff168152602001601e60ff168152602001600a60ff16815250600e600082015181600001556020820151816001015560408201518160020160006101000a81548160ff021916908360ff16021790555060608201518160020160016101000a81548160ff021916908360ff16021790555060808201518160020160026101000a81548160ff021916908360ff16021790555050506040518060a001604052806000815260200160008152602001603c81526020016078815260200161012c8152506011600082015181600001556020820151816001015560408201518160020155606082015181600301556080820151816004015550506040518060400160405280601460ff168152602001600a60ff16815250601660008201518160000160006101000a81548160ff021916908360ff16021790555060208201518160000160016101000a81548160ff021916908360ff16021790555050503480156200022657600080fd5b50604051620045fa380380620045fa83398181016040528101906200024c9190620005f7565b60006200025e6200052660201b60201c565b9050806000806101000a81548173ffffffffffffffffffffffffffffffffffffffff021916908373ffffffffffffffffffffffffffffffffffffffff1602179055508073ffffffffffffffffffffffffffffffffffffffff16600073ffffffffffffffffffffffffffffffffffffffff167f8be0079c531659141344cd1fd0a4f28419497f9722a3daafe3b4186f6b6457e060405160405180910390a35080600360006101000a81548173ffffffffffffffffffffffffffffffffffffffff021916908373ffffffffffffffffffffffffffffffffffffffff160217905550600360009054906101000a900473ffffffffffffffffffffffffffffffffffffffff1673ffffffffffffffffffffffffffffffffffffffff16631694505e6040518163ffffffff1660e01b815260040160206040518083038186803b158015620003a657600080fd5b505afa158015620003bb573d6000803e3d6000fd5b505050506040513d601f19601f82011682018060405250810190620003e1919062000623565b73ffffffffffffffffffffffffffffffffffffffff1660808173ffffffffffffffffffffffffffffffffffffffff1660601b81525050600360009054906101000a900473ffffffffffffffffffffffffffffffffffffffff1673ffffffffffffffffffffffffffffffffffffffff166349bd5a5e6040518163ffffffff1660e01b815260040160206040518083038186803b1580156200048057600080fd5b505afa15801562000495573d6000803e3d6000fd5b505050506040513d601f19601f82011682018060405250810190620004bb9190620005cb565b73ffffffffffffffffffffffffffffffffffffffff1660a08173ffffffffffffffffffffffffffffffffffffffff1660601b8152505042601781905550620005196006600001546017546200052e60201b62001e631790919060201c565b601881905550506200076e565b600033905090565b6000808284019050838110156200057c576040517f08c379a0000000000000000000000000000000000000000000000000000000008152600401620005739062000691565b60405180910390fd5b8091505092915050565b600081519050620005978162000720565b92915050565b600081519050620005ae816200073a565b92915050565b600081519050620005c58162000754565b92915050565b600060208284031215620005de57600080fd5b6000620005ee8482850162000586565b91505092915050565b6000602082840312156200060a57600080fd5b60006200061a848285016200059d565b91505092915050565b6000602082840312156200063657600080fd5b60006200064684828501620005b4565b91505092915050565b60006200065e601b83620006b3565b91507f536166654d6174683a206164646974696f6e206f766572666c6f7700000000006000830152602082019050919050565b60006020820190508181036000830152620006ac816200064f565b9050919050565b600082825260208201905092915050565b6000620006d18262000700565b9050919050565b6000620006e58262000700565b9050919050565b6000620006f982620006c4565b9050919050565b600073ffffffffffffffffffffffffffffffffffffffff82169050919050565b6200072b81620006c4565b81146200073757600080fd5b50565b6200074581620006d8565b81146200075157600080fd5b50565b6200075f81620006ec565b81146200076b57600080fd5b50565b60805160601c60a05160601c613e3f620007bb6000398061130a528061150952806119bc52806126fe52806127fc52806128f85250806106ed528061229c528061232e5250613e3f6000f3fe6080604052600436106101815760003560e01c8063873e9e19116100d1578063a69df4b51161008a578063dd46706411610064578063dd46706414610531578063dfe2f9df1461055a578063f2fde38b14610583578063fc4c0daa146105ac57610181565b8063a69df4b5146104c4578063a8aa1b31146104db578063b6c523241461050657610181565b8063873e9e19146103c15780638da5cb5b146103ef57806390f73d4d1461041a57806397d8c676146104455780639a6c45581461046e578063a1a64a1e1461049957610181565b8063365315191161013e578063715018a611610118578063715018a61461032b578063724ab2c7146103425780637c22d1a814610381578063853828b6146103aa57610181565b8063365315191461029a5780634bd724ed146102ca5780635d452201146102f957610181565b8063146ac2ce146101865780631694505e146101af5780631f91d58f146101da5780631ffbb06414610203578063235b6ea1146102405780633197cbb61461026f575b600080fd5b34801561019257600080fd5b506101ad60048036038101906101a89190612eb3565b6105d8565b005b3480156101bb57600080fd5b506101c46106eb565b6040516101d191906137fc565b60405180910390f35b3480156101e657600080fd5b5061020160048036038101906101fc9190612e15565b61070f565b005b34801561020f57600080fd5b5061022a60048036038101906102259190612c32565b6107c7565b60405161023791906137ab565b60405180910390f35b34801561024c57600080fd5b5061025561081d565b604051610266959493929190613b65565b60405180910390f35b34801561027b57600080fd5b50610284610868565b6040516102919190613a42565b60405180910390f35b6102b460048036038101906102af9190612dc6565b61086e565b6040516102c19190613a42565b60405180910390f35b3480156102d657600080fd5b506102df610e20565b6040516102f0959493929190613a94565b60405180910390f35b34801561030557600080fd5b5061030e610e44565b604051610322989796959493929190613ae7565b60405180910390f35b34801561033757600080fd5b50610340610e7a565b005b34801561034e57600080fd5b5061036960048036038101906103649190612d8a565b610fcd565b60405161037893929190613a5d565b60405180910390f35b34801561038d57600080fd5b506103a860048036038101906103a39190612f2a565b611027565b005b3480156103b657600080fd5b506103bf6110fc565b005b3480156103cd57600080fd5b506103d6611203565b6040516103e694939291906139f9565b60405180910390f35b3480156103fb57600080fd5b50610404611619565b60405161041191906136eb565b60405180910390f35b34801561042657600080fd5b5061042f611642565b60405161043c91906137c6565b60405180910390f35b34801561045157600080fd5b5061046c60048036038101906104679190612c84565b611668565b005b34801561047a57600080fd5b50610483611758565b6040516104909190613a42565b60405180910390f35b3480156104a557600080fd5b506104ae611788565b6040516104bb9190613a42565b60405180910390f35b3480156104d057600080fd5b506104d96117e6565b005b3480156104e757600080fd5b506104f06119ba565b6040516104fd91906137e1565b60405180910390f35b34801561051257600080fd5b5061051b6119de565b6040516105289190613a42565b60405180910390f35b34801561053d57600080fd5b5061055860048036038101906105539190612d38565b6119e8565b005b34801561056657600080fd5b50610581600480360381019061057c9190612d8a565b611ba6565b005b34801561058f57600080fd5b506105aa60048036038101906105a59190612c32565b611c75565b005b3480156105b857600080fd5b506105c1611e37565b6040516105cf929190613bb8565b60405180910390f35b6105e0611eb8565b73ffffffffffffffffffffffffffffffffffffffff1660008054906101000a900473ffffffffffffffffffffffffffffffffffffffff1673ffffffffffffffffffffffffffffffffffffffff161461066d576040517f08c379a000000000000000000000000000000000000000000000000000000000815260040161066490613939565b60405180910390fd5b84600e6000018190555083600e6001018190555082606403600e60020160006101000a81548160ff021916908360ff16021790555081606403600e60020160016101000a81548160ff021916908360ff16021790555080606403600e60020160026101000a81548160ff021916908360ff1602179055505050505050565b7f000000000000000000000000000000000000000000000000000000000000000081565b610717611eb8565b73ffffffffffffffffffffffffffffffffffffffff1660008054906101000a900473ffffffffffffffffffffffffffffffffffffffff1673ffffffffffffffffffffffffffffffffffffffff16146107a4576040517f08c379a000000000000000000000000000000000000000000000000000000000815260040161079b90613939565b60405180910390fd5b826011600201819055508160116003018190555080601160040181905550505050565b6000601960008373ffffffffffffffffffffffffffffffffffffffff1673ffffffffffffffffffffffffffffffffffffffff16815260200190815260200160002060009054906101000a900460ff169050919050565b600e8060000154908060010154908060020160009054906101000a900460ff16908060020160019054906101000a900460ff16908060020160029054906101000a900460ff16905085565b60185481565b60008061087b8585611ec0565b6108ba576040517f08c379a00000000000000000000000000000000000000000000000000000000081526004016108b1906138d9565b60405180910390fd5b6000806108c787876120b4565b915091506108de8183611e6390919063ffffffff16565b925082341015610923576040517f08c379a000000000000000000000000000000000000000000000000000000000815260040161091a90613879565b60405180910390fd5b60008060006109328a86612257565b9250925092506000600460003373ffffffffffffffffffffffffffffffffffffffff1673ffffffffffffffffffffffffffffffffffffffff1681526020019081526020016000209050600081600601541415610a02573360056000600660010154815260200190815260200160002060006101000a81548173ffffffffffffffffffffffffffffffffffffffff021916908373ffffffffffffffffffffffffffffffffffffffff1602179055506109f86001600660010154611e6390919063ffffffff16565b6006600101819055505b610a19848260000154611e6390919063ffffffff16565b8160000181905550610a38838260020154611e6390919063ffffffff16565b8160020181905550610a57828260010154611e6390919063ffffffff16565b8160010181905550610a76848260030154611e6390919063ffffffff16565b8160030181905550610a95828260050154611e6390919063ffffffff16565b8160050181905550610ab4838260040154611e6390919063ffffffff16565b816004018190555042816006018190555089816007018190555086341115610b57573373ffffffffffffffffffffffffffffffffffffffff16610b00883461241890919063ffffffff16565b61753090604051610b10906136d6565b600060405180830381858888f193505050503d8060008114610b4e576040519150601f19603f3d011682016040523d82523d6000602084013e610b53565b606091505b5050505b60008073ffffffffffffffffffffffffffffffffffffffff168a73ffffffffffffffffffffffffffffffffffffffff1614610d2257610bc76064610bb9601660000160009054906101000a900460ff1660ff168961246290919063ffffffff16565b6124d290919063ffffffff16565b90508973ffffffffffffffffffffffffffffffffffffffff168161753090604051610bf1906136d6565b600060405180830381858888f193505050503d8060008114610c2f576040519150601f19603f3d011682016040523d82523d6000602084013e610c34565b606091505b505050600360009054906101000a900473ffffffffffffffffffffffffffffffffffffffff1673ffffffffffffffffffffffffffffffffffffffff1663a9059cbb8b610cb16064610ca3601660000160019054906101000a900460ff1660ff168b61246290919063ffffffff16565b6124d290919063ffffffff16565b6040518363ffffffff1660e01b8152600401610cce929190613721565b602060405180830381600087803b158015610ce857600080fd5b505af1158015610cfc573d6000803e3d6000fd5b505050506040513d601f19601f82011682018060405250810190610d209190612cc0565b505b6000610d2c611619565b73ffffffffffffffffffffffffffffffffffffffff16610d55838961241890919063ffffffff16565b61753090604051610d65906136d6565b600060405180830381858888f193505050503d8060008114610da3576040519150601f19603f3d011682016040523d82523d6000602084013e610da8565b606091505b5050905080610dec576040517f08c379a0000000000000000000000000000000000000000000000000000000008152600401610de390613959565b60405180910390fd5b610e0487600660070154611e6390919063ffffffff16565b6006600701819055508399505050505050505050509392505050565b60118060000154908060010154908060020154908060030154908060040154905085565b60068060000154908060010154908060020154908060030154908060040154908060050154908060060154908060070154905088565b610e82611eb8565b73ffffffffffffffffffffffffffffffffffffffff1660008054906101000a900473ffffffffffffffffffffffffffffffffffffffff1673ffffffffffffffffffffffffffffffffffffffff1614610f0f576040517f08c379a0000000000000000000000000000000000000000000000000000000008152600401610f0690613939565b60405180910390fd5b600073ffffffffffffffffffffffffffffffffffffffff1660008054906101000a900473ffffffffffffffffffffffffffffffffffffffff1673ffffffffffffffffffffffffffffffffffffffff167f8be0079c531659141344cd1fd0a4f28419497f9722a3daafe3b4186f6b6457e060405160405180910390a360008060006101000a81548173ffffffffffffffffffffffffffffffffffffffff021916908373ffffffffffffffffffffffffffffffffffffffff160217905550565b6000806000610fdc8585611ec0565b610ff157600092506000915060009050611020565b600080610ffe87876120b4565b915091506110158183611e6390919063ffffffff16565b945081935080925050505b9250925092565b61102f611eb8565b73ffffffffffffffffffffffffffffffffffffffff1660008054906101000a900473ffffffffffffffffffffffffffffffffffffffff1673ffffffffffffffffffffffffffffffffffffffff16146110bc576040517f08c379a00000000000000000000000000000000000000000000000000000000081526004016110b390613939565b60405180910390fd5b81601660000160006101000a81548160ff021916908360ff16021790555080601660000160016101000a81548160ff021916908360ff1602179055505050565b611104611eb8565b73ffffffffffffffffffffffffffffffffffffffff1660008054906101000a900473ffffffffffffffffffffffffffffffffffffffff1673ffffffffffffffffffffffffffffffffffffffff1614611191576040517f08c379a000000000000000000000000000000000000000000000000000000000815260040161118890613939565b60405180910390fd5b60005b6006600101548110156112005760006005600083815260200190815260200160002060009054906101000a900473ffffffffffffffffffffffffffffffffffffffff1690506111e28161251c565b156111f2576111f0816126ab565b505b508080600101915050611194565b50565b61120b612a84565b611213612ac9565b61121b612b01565b611223612b30565b60066040518061010001604052908160008201548152602001600182015481526020016002820154815260200160038201548152602001600482015481526020016005820154815260200160068201548152602001600782015481525050935060185442111561129d5760008460000181815250506112bc565b6112b24260185461241890919063ffffffff16565b8460000181815250505b6000806112ce633b9aca0060006120b4565b915091506112e58183611e6390919063ffffffff16565b8660600181815250506112f66127f4565b876080018860a001828152508281525050507f000000000000000000000000000000000000000000000000000000000000000073ffffffffffffffffffffffffffffffffffffffff166318160ddd6040518163ffffffff1660e01b815260040160206040518083038186803b15801561136e57600080fd5b505afa158015611382573d6000803e3d6000fd5b505050506040513d601f19601f820116820180604052508101906113a69190612d61565b8660c0018181525050600e6040518060a001604052908160008201548152602001600182015481526020016002820160009054906101000a900460ff1660ff1660ff1681526020016002820160019054906101000a900460ff1660ff1660ff1681526020016002820160029054906101000a900460ff1660ff1660ff1681525050945060116040518060a0016040529081600082015481526020016001820154815260200160028201548152602001600382015481526020016004820154815250509350600460003373ffffffffffffffffffffffffffffffffffffffff1673ffffffffffffffffffffffffffffffffffffffff168152602001908152602001600020604051806101000160405290816000820154815260200160018201548152602001600282015481526020016003820154815260200160048201548152602001600582015481526020016006820154815260200160078201548152505092507f000000000000000000000000000000000000000000000000000000000000000073ffffffffffffffffffffffffffffffffffffffff166370a08231336040518263ffffffff1660e01b81526004016115609190613706565b60206040518083038186803b15801561157857600080fd5b505afa15801561158c573d6000803e3d6000fd5b505050506040513d601f19601f820116820180604052508101906115b09190612d61565b83602001818152505060006115d28460c001514261241890919063ffffffff16565b90508360e0015181106115ef5760008460e0018181525050611610565b611606818560e0015161241890919063ffffffff16565b8460e00181815250505b50505090919293565b60008060009054906101000a900473ffffffffffffffffffffffffffffffffffffffff16905090565b600360009054906101000a900473ffffffffffffffffffffffffffffffffffffffff1681565b611670611eb8565b73ffffffffffffffffffffffffffffffffffffffff1660008054906101000a900473ffffffffffffffffffffffffffffffffffffffff1673ffffffffffffffffffffffffffffffffffffffff16146116fd576040517f08c379a00000000000000000000000000000000000000000000000000000000081526004016116f490613939565b60405180910390fd5b80601960008473ffffffffffffffffffffffffffffffffffffffff1673ffffffffffffffffffffffffffffffffffffffff16815260200190815260200160002060006101000a81548160ff0219169083151502179055505050565b600042601854101561176d5760009050611785565b6117824260185461241890919063ffffffff16565b90505b90565b60006117933361251c565b6117d2576040517f08c379a00000000000000000000000000000000000000000000000000000000081526004016117c990613859565b60405180910390fd5b60006117dd336126ab565b90508091505090565b3373ffffffffffffffffffffffffffffffffffffffff16600160009054906101000a900473ffffffffffffffffffffffffffffffffffffffff1673ffffffffffffffffffffffffffffffffffffffff1614611876576040517f08c379a000000000000000000000000000000000000000000000000000000000815260040161186d906139d9565b60405180910390fd5b60025442116118ba576040517f08c379a00000000000000000000000000000000000000000000000000000000081526004016118b190613999565b60405180910390fd5b600160009054906101000a900473ffffffffffffffffffffffffffffffffffffffff1673ffffffffffffffffffffffffffffffffffffffff1660008054906101000a900473ffffffffffffffffffffffffffffffffffffffff1673ffffffffffffffffffffffffffffffffffffffff167f8be0079c531659141344cd1fd0a4f28419497f9722a3daafe3b4186f6b6457e060405160405180910390a3600160009054906101000a900473ffffffffffffffffffffffffffffffffffffffff166000806101000a81548173ffffffffffffffffffffffffffffffffffffffff021916908373ffffffffffffffffffffffffffffffffffffffff160217905550565b7f000000000000000000000000000000000000000000000000000000000000000081565b6000600254905090565b6119f0611eb8565b73ffffffffffffffffffffffffffffffffffffffff1660008054906101000a900473ffffffffffffffffffffffffffffffffffffffff1673ffffffffffffffffffffffffffffffffffffffff1614611a7d576040517f08c379a0000000000000000000000000000000000000000000000000000000008152600401611a7490613939565b60405180910390fd5b60008054906101000a900473ffffffffffffffffffffffffffffffffffffffff16600160006101000a81548173ffffffffffffffffffffffffffffffffffffffff021916908373ffffffffffffffffffffffffffffffffffffffff16021790555060008060006101000a81548173ffffffffffffffffffffffffffffffffffffffff021916908373ffffffffffffffffffffffffffffffffffffffff160217905550804201600281905550600073ffffffffffffffffffffffffffffffffffffffff1660008054906101000a900473ffffffffffffffffffffffffffffffffffffffff1673ffffffffffffffffffffffffffffffffffffffff167f8be0079c531659141344cd1fd0a4f28419497f9722a3daafe3b4186f6b6457e060405160405180910390a350565b611bae611eb8565b73ffffffffffffffffffffffffffffffffffffffff1660008054906101000a900473ffffffffffffffffffffffffffffffffffffffff1673ffffffffffffffffffffffffffffffffffffffff1614611c3b576040517f08c379a0000000000000000000000000000000000000000000000000000000008152600401611c3290613939565b60405180910390fd5b806006600201819055508160066000018190555042601781905550611c6b82601754611e6390919063ffffffff16565b6018819055505050565b611c7d611eb8565b73ffffffffffffffffffffffffffffffffffffffff1660008054906101000a900473ffffffffffffffffffffffffffffffffffffffff1673ffffffffffffffffffffffffffffffffffffffff1614611d0a576040517f08c379a0000000000000000000000000000000000000000000000000000000008152600401611d0190613939565b60405180910390fd5b600073ffffffffffffffffffffffffffffffffffffffff168173ffffffffffffffffffffffffffffffffffffffff161415611d7a576040517f08c379a0000000000000000000000000000000000000000000000000000000008152600401611d7190613899565b60405180910390fd5b8073ffffffffffffffffffffffffffffffffffffffff1660008054906101000a900473ffffffffffffffffffffffffffffffffffffffff1673ffffffffffffffffffffffffffffffffffffffff167f8be0079c531659141344cd1fd0a4f28419497f9722a3daafe3b4186f6b6457e060405160405180910390a3806000806101000a81548173ffffffffffffffffffffffffffffffffffffffff021916908373ffffffffffffffffffffffffffffffffffffffff16021790555050565b60168060000160009054906101000a900460ff16908060000160019054906101000a900460ff16905082565b600080828401905083811015611eae576040517f08c379a0000000000000000000000000000000000000000000000000000000008152600401611ea5906138b9565b60405180910390fd5b8091505092915050565b600033905090565b600080611edb84600660040154611e6390919063ffffffff16565b90506000841480611ef0575060066002015481115b15611f30576040517f08c379a0000000000000000000000000000000000000000000000000000000008152600401611f27906138f9565b60405180910390fd5b6000831480611f43575060116000015483105b15611f83576040517f08c379a0000000000000000000000000000000000000000000000000000000008152600401611f7a90613979565b60405180910390fd5b611f8b612b30565b600460003373ffffffffffffffffffffffffffffffffffffffff1673ffffffffffffffffffffffffffffffffffffffff1681526020019081526020016000206040518061010001604052908160008201548152602001600182015481526020016002820154815260200160038201548152602001600482015481526020016005820154815260200160068201548152602001600782015481525050905060008160c001511415801561206857506120538160e001518260c00151611e6390919063ffffffff16565b6120668542611e6390919063ffffffff16565b105b156120a8576040517f08c379a000000000000000000000000000000000000000000000000000000000815260040161209f90613839565b60405180910390fd5b60019250505092915050565b6000806000806120c26127f4565b9150915060008060008414806120d85750600083145b15612118576040517f08c379a000000000000000000000000000000000000000000000000000000000815260040161210f906139b9565b60405180910390fd5b61213d8461212f858b61246290919063ffffffff16565b6124d290919063ffffffff16565b91506000871415612158578160009550955050505050612250565b6011600301548710158015612171575060116004015487105b156121b8576121b160646121a3600e60020160019054906101000a900460ff1660ff168561246290919063ffffffff16565b6124d290919063ffffffff16565b9050612245565b6011600401548710612206576121ff60646121f1600e60020160029054906101000a900460ff1660ff168561246290919063ffffffff16565b6124d290919063ffffffff16565b9050612244565b6122416064612233600e60020160009054906101000a900460ff1660ff168561246290919063ffffffff16565b6124d290919063ffffffff16565b90505b5b818195509550505050505b9250929050565b6000806000600360009054906101000a900473ffffffffffffffffffffffffffffffffffffffff1673ffffffffffffffffffffffffffffffffffffffff1663095ea7b37f0000000000000000000000000000000000000000000000000000000000000000876040518363ffffffff1660e01b81526004016122d9929190613721565b602060405180830381600087803b1580156122f357600080fd5b505af1158015612307573d6000803e3d6000fd5b505050506040513d601f19601f8201168201806040525081019061232b9190612cc0565b507f000000000000000000000000000000000000000000000000000000000000000073ffffffffffffffffffffffffffffffffffffffff1663f305d71985600360009054906101000a900473ffffffffffffffffffffffffffffffffffffffff168860008030426040518863ffffffff1660e01b81526004016123b39695949392919061374a565b6060604051808303818588803b1580156123cc57600080fd5b505af11580156123e0573d6000803e3d6000fd5b50505050506040513d601f19601f820116820180604052508101906124059190612e64565b8093508194508295505050509250925092565b600061245a83836040518060400160405280601e81526020017f536166654d6174683a207375627472616374696f6e206f766572666c6f7700008152506129c8565b905092915050565b60008083141561247557600090506124cc565b600082840290508284828161248657fe5b04146124c7576040517f08c379a00000000000000000000000000000000000000000000000000000000081526004016124be90613919565b60405180910390fd5b809150505b92915050565b600061251483836040518060400160405280601a81526020017f536166654d6174683a206469766973696f6e206279207a65726f000000000000815250612a23565b905092915050565b600080600460008473ffffffffffffffffffffffffffffffffffffffff1673ffffffffffffffffffffffffffffffffffffffff16815260200190815260200160002060030154141580156125b357506000600460008473ffffffffffffffffffffffffffffffffffffffff1673ffffffffffffffffffffffffffffffffffffffff1681526020019081526020016000206005015414155b801561260257506000600460008473ffffffffffffffffffffffffffffffffffffffff1673ffffffffffffffffffffffffffffffffffffffff1681526020019081526020016000206006015414155b80156126a45750600460008373ffffffffffffffffffffffffffffffffffffffff1673ffffffffffffffffffffffffffffffffffffffff168152602001908152602001600020600701546126a1600460008573ffffffffffffffffffffffffffffffffffffffff1673ffffffffffffffffffffffffffffffffffffffff168152602001908152602001600020600601544261241890919063ffffffff16565b10155b9050919050565b600080600460008473ffffffffffffffffffffffffffffffffffffffff1673ffffffffffffffffffffffffffffffffffffffff16815260200190815260200160002090506000816005015411156127af577f000000000000000000000000000000000000000000000000000000000000000073ffffffffffffffffffffffffffffffffffffffff1663a9059cbb8483600501546040518363ffffffff1660e01b815260040161275b929190613721565b602060405180830381600087803b15801561277557600080fd5b505af1158015612789573d6000803e3d6000fd5b505050506040513d601f19601f820116820180604052508101906127ad9190612cc0565b505b60008160050154905060008260030181905550600082600501819055506000826004018190555060008260060181905550600082600701819055508092505050919050565b6000806000807f000000000000000000000000000000000000000000000000000000000000000073ffffffffffffffffffffffffffffffffffffffff16630902f1ac6040518163ffffffff1660e01b815260040160606040518083038186803b15801561286057600080fd5b505afa158015612874573d6000803e3d6000fd5b505050506040513d601f19601f820116820180604052508101906128989190612ce9565b506dffffffffffffffffffffffffffff1691506dffffffffffffffffffffffffffff169150600360009054906101000a900473ffffffffffffffffffffffffffffffffffffffff1673ffffffffffffffffffffffffffffffffffffffff167f000000000000000000000000000000000000000000000000000000000000000073ffffffffffffffffffffffffffffffffffffffff16630dfe16816040518163ffffffff1660e01b815260040160206040518083038186803b15801561295c57600080fd5b505afa158015612970573d6000803e3d6000fd5b505050506040513d601f19601f820116820180604052508101906129949190612c5b565b73ffffffffffffffffffffffffffffffffffffffff1614156129bb578193508092506129c2565b8093508192505b50509091565b6000838311158290612a10576040517f08c379a0000000000000000000000000000000000000000000000000000000008152600401612a079190613817565b60405180910390fd5b5060008385039050809150509392505050565b60008083118290612a6a576040517f08c379a0000000000000000000000000000000000000000000000000000000008152600401612a619190613817565b60405180910390fd5b506000838581612a7657fe5b049050809150509392505050565b60405180610100016040528060008152602001600081526020016000815260200160008152602001600081526020016000815260200160008152602001600081525090565b6040518060a001604052806000815260200160008152602001600060ff168152602001600060ff168152602001600060ff1681525090565b6040518060a0016040528060008152602001600081526020016000815260200160008152602001600081525090565b60405180610100016040528060008152602001600081526020016000815260200160008152602001600081526020016000815260200160008152602001600081525090565b600081359050612b8481613d7f565b92915050565b600081519050612b9981613d7f565b92915050565b600081359050612bae81613d96565b92915050565b600081519050612bc381613d96565b92915050565b600081519050612bd881613dad565b92915050565b600081359050612bed81613dc4565b92915050565b600081519050612c0281613dc4565b92915050565b600081519050612c1781613ddb565b92915050565b600081359050612c2c81613df2565b92915050565b600060208284031215612c4457600080fd5b6000612c5284828501612b75565b91505092915050565b600060208284031215612c6d57600080fd5b6000612c7b84828501612b8a565b91505092915050565b60008060408385031215612c9757600080fd5b6000612ca585828601612b75565b9250506020612cb685828601612b9f565b9150509250929050565b600060208284031215612cd257600080fd5b6000612ce084828501612bb4565b91505092915050565b600080600060608486031215612cfe57600080fd5b6000612d0c86828701612bc9565b9350506020612d1d86828701612bc9565b9250506040612d2e86828701612c08565b9150509250925092565b600060208284031215612d4a57600080fd5b6000612d5884828501612bde565b91505092915050565b600060208284031215612d7357600080fd5b6000612d8184828501612bf3565b91505092915050565b60008060408385031215612d9d57600080fd5b6000612dab85828601612bde565b9250506020612dbc85828601612bde565b9150509250929050565b600080600060608486031215612ddb57600080fd5b6000612de986828701612bde565b9350506020612dfa86828701612bde565b9250506040612e0b86828701612b75565b9150509250925092565b600080600060608486031215612e2a57600080fd5b6000612e3886828701612bde565b9350506020612e4986828701612bde565b9250506040612e5a86828701612bde565b9150509250925092565b600080600060608486031215612e7957600080fd5b6000612e8786828701612bf3565b9350506020612e9886828701612bf3565b9250506040612ea986828701612bf3565b9150509250925092565b600080600080600060a08688031215612ecb57600080fd5b6000612ed988828901612bde565b9550506020612eea88828901612bde565b9450506040612efb88828901612c1d565b9350506060612f0c88828901612c1d565b9250506080612f1d88828901612c1d565b9150509295509295909350565b60008060408385031215612f3d57600080fd5b6000612f4b85828601612c1d565b9250506020612f5c85828601612c1d565b9150509250929050565b612f6f81613c87565b82525050565b612f7e81613c08565b82525050565b612f8d81613c1a565b82525050565b612f9c81613c99565b82525050565b612fab81613cbd565b82525050565b612fba81613ce1565b82525050565b612fc981613d05565b82525050565b6000612fda82613be1565b612fe48185613bf7565b9350612ff4818560208601613d3b565b612ffd81613d6e565b840191505092915050565b6000613015603c83613bf7565b91507f4c6f636b20706572696f64206d7573742067726561746572207468616e20796f60008301527f75722063757272656e742072656d61696e206c6f636b2074696d652e000000006020830152604082019050919050565b600061307b601a83613bf7565b91507f43616e6e6f74206265636f6d6520746f204c50206f776e6572210000000000006000830152602082019050919050565b60006130bb601383613bf7565b91507f4f7574206f66207265717565737420424e4221000000000000000000000000006000830152602082019050919050565b60006130fb602683613bf7565b91507f4f776e61626c653a206e6577206f776e657220697320746865207a65726f206160008301527f64647265737300000000000000000000000000000000000000000000000000006020830152604082019050919050565b6000613161601b83613bf7565b91507f536166654d6174683a206164646974696f6e206f766572666c6f7700000000006000830152602082019050919050565b60006131a1602f83613bf7565b91507f43616e6e6f74207072652d7374616b652077697468207468697320726571756960008301527f72656420706172616d65746572732e00000000000000000000000000000000006020830152604082019050919050565b6000613207601c83613bf7565b91507f526571756972656420616d6f756e7420697320746f6f206d75636821000000006000830152602082019050919050565b6000613247602183613bf7565b91507f536166654d6174683a206d756c7469706c69636174696f6e206f766572666c6f60008301527f77000000000000000000000000000000000000000000000000000000000000006020830152604082019050919050565b60006132ad602083613bf7565b91507f4f776e61626c653a2063616c6c6572206973206e6f7420746865206f776e65726000830152602082019050919050565b60006132ed601c83613bf7565b91507f4661696c656420746f2073656e6420424e4220746f206f776e657221000000006000830152602082019050919050565b600061332d600083613bec565b9150600082019050919050565b6000613347601983613bf7565b91507f4c6f636b20706572696f6420697320746f6f2073686f727421000000000000006000830152602082019050919050565b6000613387601f83613bf7565b91507f436f6e7472616374206973206c6f636b656420756e74696c20372064617973006000830152602082019050919050565b60006133c7602583613bf7565b91507f4c697175696469747920706f6f6c206973206e6f7420636f6e6669677572656460008301527f20796574210000000000000000000000000000000000000000000000000000006020830152604082019050919050565b600061342d602383613bf7565b91507f596f7520646f6e27742068617665207065726d697373696f6e20746f20756e6c60008301527f6f636b00000000000000000000000000000000000000000000000000000000006020830152604082019050919050565b6101008201600082015161349d600085018261369a565b5060208201516134b0602085018261369a565b5060408201516134c3604085018261369a565b5060608201516134d6606085018261369a565b5060808201516134e9608085018261369a565b5060a08201516134fc60a085018261369a565b5060c082015161350f60c085018261369a565b5060e082015161352260e085018261369a565b50505050565b60a08201600082015161353e600085018261369a565b506020820151613551602085018261369a565b506040820151613564604085018261369a565b506060820151613577606085018261369a565b50608082015161358a608085018261369a565b50505050565b610100820160008201516135a7600085018261369a565b5060208201516135ba602085018261369a565b5060408201516135cd604085018261369a565b5060608201516135e0606085018261369a565b5060808201516135f3608085018261369a565b5060a082015161360660a085018261369a565b5060c082015161361960c085018261369a565b5060e082015161362c60e085018261369a565b50505050565b60a082016000820151613648600085018261369a565b50602082015161365b602085018261369a565b50604082015161366e60408501826136b8565b50606082015161368160608501826136b8565b50608082015161369460808501826136b8565b50505050565b6136a381613c60565b82525050565b6136b281613c60565b82525050565b6136c181613c7a565b82525050565b6136d081613c7a565b82525050565b60006136e182613320565b9150819050919050565b60006020820190506137006000830184612f75565b92915050565b600060208201905061371b6000830184612f66565b92915050565b60006040820190506137366000830185612f75565b61374360208301846136a9565b9392505050565b600060c08201905061375f6000830189612f75565b61376c60208301886136a9565b6137796040830187612fc0565b6137866060830186612fc0565b6137936080830185612f75565b6137a060a08301846136a9565b979650505050505050565b60006020820190506137c06000830184612f84565b92915050565b60006020820190506137db6000830184612f93565b92915050565b60006020820190506137f66000830184612fa2565b92915050565b60006020820190506138116000830184612fb1565b92915050565b600060208201905081810360008301526138318184612fcf565b905092915050565b6000602082019050818103600083015261385281613008565b9050919050565b600060208201905081810360008301526138728161306e565b9050919050565b60006020820190508181036000830152613892816130ae565b9050919050565b600060208201905081810360008301526138b2816130ee565b9050919050565b600060208201905081810360008301526138d281613154565b9050919050565b600060208201905081810360008301526138f281613194565b9050919050565b60006020820190508181036000830152613912816131fa565b9050919050565b600060208201905081810360008301526139328161323a565b9050919050565b60006020820190508181036000830152613952816132a0565b9050919050565b60006020820190508181036000830152613972816132e0565b9050919050565b600060208201905081810360008301526139928161333a565b9050919050565b600060208201905081810360008301526139b28161337a565b9050919050565b600060208201905081810360008301526139d2816133ba565b9050919050565b600060208201905081810360008301526139f281613420565b9050919050565b600061034082019050613a0f6000830187613590565b613a1d610100830186613632565b613a2b6101a0830185613528565b613a39610240830184613486565b95945050505050565b6000602082019050613a5760008301846136a9565b92915050565b6000606082019050613a7260008301866136a9565b613a7f60208301856136a9565b613a8c60408301846136a9565b949350505050565b600060a082019050613aa960008301886136a9565b613ab660208301876136a9565b613ac360408301866136a9565b613ad060608301856136a9565b613add60808301846136a9565b9695505050505050565b600061010082019050613afd600083018b6136a9565b613b0a602083018a6136a9565b613b1760408301896136a9565b613b2460608301886136a9565b613b3160808301876136a9565b613b3e60a08301866136a9565b613b4b60c08301856136a9565b613b5860e08301846136a9565b9998505050505050505050565b600060a082019050613b7a60008301886136a9565b613b8760208301876136a9565b613b9460408301866136c7565b613ba160608301856136c7565b613bae60808301846136c7565b9695505050505050565b6000604082019050613bcd60008301856136c7565b613bda60208301846136c7565b9392505050565b600081519050919050565b600081905092915050565b600082825260208201905092915050565b6000613c1382613c40565b9050919050565b60008115159050919050565b60006dffffffffffffffffffffffffffff82169050919050565b600073ffffffffffffffffffffffffffffffffffffffff82169050919050565b6000819050919050565b600063ffffffff82169050919050565b600060ff82169050919050565b6000613c9282613d17565b9050919050565b6000613ca482613cab565b9050919050565b6000613cb682613c40565b9050919050565b6000613cc882613ccf565b9050919050565b6000613cda82613c40565b9050919050565b6000613cec82613cf3565b9050919050565b6000613cfe82613c40565b9050919050565b6000613d1082613c60565b9050919050565b6000613d2282613d29565b9050919050565b6000613d3482613c40565b9050919050565b60005b83811015613d59578082015181840152602081019050613d3e565b83811115613d68576000848401525b50505050565b6000601f19601f8301169050919050565b613d8881613c08565b8114613d9357600080fd5b50565b613d9f81613c1a565b8114613daa57600080fd5b50565b613db681613c26565b8114613dc157600080fd5b50565b613dcd81613c60565b8114613dd857600080fd5b50565b613de481613c6a565b8114613def57600080fd5b50565b613dfb81613c7a565b8114613e0657600080fd5b5056fea2646970667358221220eafe84bff16006617c6661fee27105371d609f1ca361cba9874814abeb64444b64736f6c634300060c0033",
  "immutableReferences": {
    "1525": [
      {
        "length": 32,
        "start": 1773
      },
      {
        "length": 32,
        "start": 8860
      },
      {
        "length": 32,
        "start": 9006
      }
    ],
    "1527": [
      {
        "length": 32,
        "start": 4874
      },
      {
        "length": 32,
        "start": 5385
      },
      {
        "length": 32,
        "start": 6588
      },
      {
        "length": 32,
        "start": 9982
      },
      {
        "length": 32,
        "start": 10236
      },
      {
        "length": 32,
        "start": 10488
      }
    ]
  },
  "source": "//SPDX-License-Identifier: Unlicense\r\npragma solidity ^0.6.12;\r\npragma experimental ABIEncoderV2;\r\n\r\nimport \"./IMetaAx.sol\";\r\nimport \"./pair.sol\";\r\n\r\ncontract MetaAxPresale is Ownable {\r\n  using SafeMath for uint256;\r\n  using Address for address;\r\n  bool private constant TESTING = true;\r\n\r\n  // structure represents general information of presale state\r\n  struct PresaleStat {\r\n    uint    remaining;      // lifetime of this pre-staking epoch\r\n    uint    investorCount;  // total count of investors\r\n    uint256 amountLimit;    // limits that can be be staked in the pre-staking priod\r\n    uint256 curPrice;       // current actual price of token\r\n    uint256 stakedMtax;     // total amount of staked MTAX token\r\n    uint256 stakedBNB;      // total amount of staked BNB\r\n    uint256 stakedLP;       // total amount of staked MTAX<->BNB LP token\r\n    uint256 spentBonus;     // total amount of MTAX token used for bonus\r\n  }\r\n  // structure represents price policy\r\n  struct PricePolicy {\r\n    uint    publishN;         // Numberator of estimated token on the time of publishment\r\n    uint    publishD;         // Denominator of estimated token on the time of publishment\r\n    uint8   discount;         // discount rate of presale price\r\n    uint8   discountL;        // price degree Low\r\n    uint8   discountH;        // price degree High    \r\n  }\r\n  // structure represents lockout policy\r\n  struct LockPolicy {\r\n    uint    min;  // minimum period of lockout\r\n    uint    max;  // maximum period of lockout\r\n    uint    lockL;// Low lock level\r\n    uint    lockM;// Meduim lock level\r\n    uint    lockH;// High lock level\r\n  }\r\n  // structure represents investor's stake information\r\n  struct Investor {\r\n    uint256 amount;         // acmount of pre-staked MetaAx\r\n    uint256 lp;             // acmount of staked LP token\r\n    uint256 bnb;            // acmount of pre-staked BNB\r\n    uint256 reservedAmount; // reserved amount of MTAX token\r\n    uint256 reservedBNB;    // reserved amount of BNB coin\r\n    uint256 reservedLP;     // reserved amount of LP token\r\n    uint256 regTime;        // registration timestamp\r\n    uint256 lockout;        // lock period\r\n  }\r\n  // agent policy\r\n  struct AgentPolicy {\r\n    uint8 bnbRewardPercent;\r\n    uint8 mtaxRewardPercent;\r\n  }\r\n  // The token to be pre staked\r\n  IMetaAX public metaAx; \r\n  // investor registration info\r\n  mapping(address => Investor) private investors;\r\n  mapping(uint => address) private investorList;\r\n  // general state of presale context\r\n  PresaleStat public ico = PresaleStat({\r\n    remaining:      864000,\r\n    investorCount:  0,\r\n    amountLimit:    10000000000000000,\r\n    curPrice:       0,\r\n    stakedMtax:     0,\r\n    stakedBNB:      0,\r\n    stakedLP:       0,\r\n    spentBonus:     0\r\n  });\r\n  // price policy\r\n  PricePolicy public _price = PricePolicy({\r\n    publishN:1, \r\n    publishD:50000, \r\n    discount:50, \r\n    discountL:30, \r\n    discountH:10\r\n  });\r\n  // lockout policy\r\n  LockPolicy public _lock = LockPolicy({\r\n    min:    0,\r\n    max:    0,\r\n    lockL:  60,\r\n    lockM:  120,\r\n    lockH:  300\r\n  });\r\n  // agent policy\r\n  AgentPolicy public _agent = AgentPolicy({\r\n    bnbRewardPercent: 20,\r\n    mtaxRewardPercent: 10\r\n  });\r\n  // timestamp of start/end of pre-staking epoch\r\n  uint256 private startTime;\r\n  uint256 public endTime;\r\n  // agent list\r\n  mapping(address => bool) _agents;\r\n  // router & pair for liquidity\r\n  IUniswapV2Router02 public immutable uniswapV2Router;\r\n  IPancakePair public immutable pair;\r\n  \r\n  constructor (address payable tokenAddr) public {\r\n    metaAx = IMetaAX(tokenAddr);\r\n    uniswapV2Router = metaAx.uniswapV2Router();\r\n    pair = IPancakePair(metaAx.uniswapV2Pair());\r\n    // time duration of pre staking epoch\r\n    startTime = block.timestamp;\r\n    endTime = startTime.add(ico.remaining);\r\n  }\r\n\r\n  /**\r\n  * @dev Set the presale policy.\r\n  * @param lifetime pre-staking duratation, on ellapsed this time, token will be published\r\n  * @param cap max amount of tokens that can be presaled.\r\n  */\r\n  function setPresalePolicy(\r\n    uint                lifetime,\r\n    uint256             cap\r\n  ) public onlyOwner {\r\n    // maximum amount of pre-staking token\r\n    ico.amountLimit = cap;\r\n    ico.remaining = lifetime;\r\n    \r\n    // time duration of pre staking epoch\r\n    startTime = block.timestamp;\r\n    endTime = startTime.add(lifetime);\r\n  }\r\n\r\n  /**\r\n  * @dev Set the agnet reward policy.\r\n  * @param bnbRewardPercent BNB reward percentage for agent\r\n  * @param mtaxRewardPercent MTAX reward percentage for agent\r\n  */\r\n  function setAgentPolicy(\r\n    uint8 bnbRewardPercent, \r\n    uint8 mtaxRewardPercent) public onlyOwner\r\n  {\r\n    _agent.bnbRewardPercent = bnbRewardPercent;\r\n    _agent.mtaxRewardPercent = mtaxRewardPercent;\r\n  }\r\n\r\n  /**\r\n  * @dev Set the price & discount policy.\r\n  * @param publishN Numberator of publish price\r\n  * @param publishD Denominator of publish price\r\n  * @param discount normal discount percentage\r\n  * @param discountL discount level low\r\n  * @param discountH discount level high\r\n  */\r\n  function setDiscountPolicy(\r\n    uint  publishN,\r\n    uint  publishD,\r\n    uint8 discount,\r\n    uint8 discountL,\r\n    uint8 discountH\r\n    ) public onlyOwner\r\n  {\r\n    _price.publishN = publishN;\r\n    _price.publishD = publishD;\r\n    _price.discount = 100 - discount;\r\n    _price.discountL = 100 - discountL;\r\n    _price.discountH = 100 - discountH;\r\n  }\r\n\r\n  /**\r\n  * @dev Set the lock policy.\r\n  * @param lockL lock time level low\r\n  * @param lockM lock time level medium\r\n  * @param lockH lock time level high\r\n  */\r\n  function setLockPolicy(\r\n    uint  lockL,\r\n    uint  lockM,\r\n    uint  lockH\r\n    ) public onlyOwner\r\n  {\r\n    _lock.lockL = lockL;\r\n    _lock.lockM = lockM;\r\n    _lock.lockH = lockH;\r\n  }\r\n\r\n  /**\r\n  * @dev Get the state of investor\r\n  */\r\n  function queryState() external view returns(\r\n    PresaleStat memory prsStat, // general state of presale\r\n    PricePolicy memory price,   // price policy info \r\n    LockPolicy memory lockout,  // lockout policy info \r\n    Investor memory investor    // Individual investor information\r\n  ) {\r\n\r\n    // presale state\r\n    prsStat = ico;\r\n    if (block.timestamp > endTime)\r\n      prsStat.remaining = 0;\r\n    else \r\n      prsStat.remaining = endTime.sub(block.timestamp);\r\n    (uint256 liqBnb, uint256 additionalCost) = _calcEthForPreStaking(10**9, 0);\r\n    prsStat.curPrice = liqBnb.add(additionalCost);\r\n    (prsStat.stakedMtax, prsStat.stakedBNB) = getLiquidityPairAmount();\r\n    prsStat.stakedLP = pair.totalSupply();\r\n    // price policy info\r\n    price = _price;\r\n    // lockout policy info\r\n    lockout = _lock;\r\n    // investor info\r\n    investor = investors[msg.sender];\r\n    investor.lp = pair.balanceOf(msg.sender);\r\n    uint256 elapsedTime = block.timestamp.sub(investor.regTime);\r\n    if (elapsedTime >= investor.lockout)\r\n      investor.lockout = 0;\r\n    else\r\n      investor.lockout = investor.lockout.sub(elapsedTime);\r\n  }\r\n\r\n  /**\r\n  * @dev Check pre-stake validation\r\n  * @return return true if it is possible to pre-stake.\r\n  */\r\n  function validPreStake(uint256 amount, uint lockPeriod) private view returns(bool) {\r\n    // check if estamating amount of pre-staking token exceeds the limit\r\n    uint256 weiAmount = ico.stakedMtax.add(amount);\r\n    if (amount == 0 || weiAmount > ico.amountLimit)\r\n      revert(\"Required amount is too much!\");\r\n    \r\n    // check lockPeriod\r\n    if (lockPeriod == 0 || lockPeriod < _lock.min \r\n      /*|| lockPeriod > getPresaleRemainTime()*/)\r\n      revert(\"Lock period is too short!\");\r\n    \r\n    // If previouse request is not expired yet\r\n    // The expiration time of the current request must be greater than the expiration time of the previous request.\r\n    Investor memory i = investors[msg.sender];\r\n    if (i.regTime != 0 &&\r\n      block.timestamp.add(lockPeriod) < i.regTime.add(i.lockout))\r\n      revert(\"Lock period must greater than your current remain lock time.\");\r\n    return true;\r\n  }\r\n\r\n  /**\r\n  * @dev Calculate BNB for pre-staking\r\n  * @param amount amount of mtax token to pre-stake\r\n  * @param lockPeriod lock period\r\n  * @return calculated BNB amount.\r\n  */\r\n  function _calcEthForPreStaking(uint256 amount, uint lockPeriod) private view returns(uint256, uint256) {    \r\n    (uint256 curStakedToken, uint256 curStakedBNB) = getLiquidityPairAmount();\r\n    uint256 liqBnb;\r\n    uint256 additionalCost;\r\n\r\n    // check if liquidity pool exists\r\n    if (curStakedToken == 0 || curStakedBNB == 0)\r\n      revert(\"Liquidity pool is not configured yet!\");\r\n    liqBnb = amount\r\n      .mul(curStakedBNB)\r\n      .div(curStakedToken);\r\n    if (lockPeriod == 0)\r\n      return (liqBnb, 0);\r\n    if (lockPeriod >= _lock.lockM && lockPeriod < _lock.lockH) {\r\n      // medium lock degree\r\n      additionalCost = liqBnb.mul(_price.discountL).div(100);\r\n    } else if (lockPeriod >= _lock.lockH) {\r\n      // high lock degree\r\n      additionalCost = liqBnb.mul(_price.discountH).div(100);\r\n    } else {\r\n      additionalCost = liqBnb.mul(_price.discount).div(100);\r\n    }\r\n\r\n    return (liqBnb, additionalCost);\r\n  }\r\n\r\n  /**\r\n  * @dev Shows the possibility of pre-staking a certain amount of tokens and the BNB required for it..\r\n  * @param amount Amount of token to pre-stake.\r\n  * @param lockPeriod Period of time of releasing locked LP tokens.\r\n  * return Amount of BNB and extra token proper to adding liquidity.\r\n  */\r\n  function lookupPreStake(uint256 amount, uint lockPeriod) external view returns(uint256 totalBnb, uint256 liqBnb, uint256 additionalBnb) {\r\n    // Check pre-stake validation\r\n    if (!validPreStake(amount, lockPeriod)) {\r\n      totalBnb = 0;\r\n      liqBnb = 0;\r\n      additionalBnb = 0;\r\n    } else {\r\n      // caculate BNB for pre-staking\r\n      (uint256 _liqBnb, uint256 _additionalBnb) = _calcEthForPreStaking(amount, lockPeriod);\r\n      totalBnb = _liqBnb.add(_additionalBnb);\r\n      liqBnb = _liqBnb;\r\n      additionalBnb = _additionalBnb;\r\n    }\r\n  }\r\n\r\n  /**\r\n  * @dev Accept request of pre-stake and add liquidity.\r\n  * @param amount Amount of token to pre-stake.\r\n  * @param lockPeriod Period of time of releasing locked LP tokens.\r\n  * @return Amount of liquidity for pre-staking\r\n  */\r\n  function requestPreStake(uint256 amount, uint lockPeriod, address recommender) external payable returns(uint256) {\r\n    uint256 depositBnb;\r\n    // Check pre-stake validation\r\n    require(validPreStake(amount, lockPeriod), \"Cannot pre-stake with this required parameters.\");\r\n    // Check recommender\r\n    // if (recommender != address(0))\r\n    //   require(_agents[recommender], \"Not regestered recommender!\");\r\n    // caculate BNB for pre-staking\r\n    (uint256 amountOfBNB, uint256 additionalBnb) = _calcEthForPreStaking(amount, lockPeriod);\r\n    depositBnb = amountOfBNB.add(additionalBnb);\r\n    // check payment\r\n    require(msg.value >= depositBnb, \"Out of request BNB!\");\r\n    // add liquidity\r\n    (uint256 stakedToken, uint256 stakedBNB, uint256 liquidity) = addLiquidity(amount, amountOfBNB);\r\n    // register investor\r\n    Investor storage investor = investors[msg.sender];\r\n    if (investor.regTime == 0) // check if already requested befor\r\n    {\r\n      investorList[ico.investorCount] = msg.sender;\r\n      ico.investorCount = ico.investorCount.add(1);\r\n    }\r\n    investor.amount = investor.amount.add(stakedToken);\r\n    investor.bnb = investor.bnb.add(stakedBNB);\r\n    investor.lp = investor.lp.add(liquidity);\r\n    investor.reservedAmount = investor.reservedAmount.add(stakedToken);\r\n    investor.reservedLP = investor.reservedLP.add(liquidity);\r\n    investor.reservedBNB = investor.reservedBNB.add(stakedBNB);\r\n    investor.regTime = block.timestamp;\r\n    investor.lockout = lockPeriod;\r\n    // return remaining funds back to the investor\r\n    if (msg.value > depositBnb)\r\n      payable(msg.sender).call{value: msg.value.sub(depositBnb), gas:30000}(\"\");\r\n    // send addtional bnb to owner\r\n    uint256 agentBonus = 0;\r\n    // send addtional bnb to recommender\r\n    if (recommender != address(0))\r\n    {\r\n      agentBonus = additionalBnb.mul(_agent.bnbRewardPercent).div(100);\r\n      payable(recommender).call{value: agentBonus, gas:30000}(\"\");\r\n      metaAx.transfer(recommender, stakedToken.mul(_agent.mtaxRewardPercent).div(100));\r\n    }\r\n    (bool sent, ) = payable(owner()).call{value: additionalBnb.sub(agentBonus), gas:30000}(\"\");\r\n    require(sent, \"Failed to send BNB to owner!\");\r\n    // accumlate additional bnb\r\n    ico.spentBonus = ico.spentBonus.add(additionalBnb);\r\n    return liquidity;\r\n  }\r\n\r\n  /**\r\n  * @dev Set/release requested address as the agent\r\n  */\r\n  function setAgent(address addr, bool yn) external onlyOwner {\r\n    _agents[addr] = yn;\r\n  }\r\n\r\n  /**\r\n  * @dev Check if this account is agent\r\n  */\r\n  function isAgent(address addr) external view returns(bool) {\r\n    return _agents[addr];\r\n  }\r\n\r\n  /**\r\n  * @dev check if an investor ready to withdraw lp token\r\n  */\r\n  function _isReadyToWithdraw(address who) private view returns(bool) {\r\n    return (investors[who].reservedAmount != 0 && investors[who].reservedLP != 0 &&\r\n      investors[who].regTime != 0 && \r\n      block.timestamp.sub(investors[who].regTime) >= investors[who].lockout);\r\n  }\r\n\r\n  /**\r\n  * @dev send lp tokens to investor's wallet\r\n  */\r\n  function _sendLpToInvestor(address to) private returns(uint256) {\r\n    Investor storage i = investors[to];\r\n    // transfer LP token from this contract to the investor's wallet\r\n    if (i.reservedLP > 0)\r\n      pair.transfer(to, i.reservedLP);\r\n\r\n    // Release the investor from register list\r\n    uint256 lp = i.reservedLP;\r\n    i.reservedAmount = 0;\r\n    i.reservedLP = 0;\r\n    i.reservedBNB = 0;\r\n    i.regTime = 0;\r\n    i.lockout = 0;\r\n    return lp;\r\n  }\r\n\r\n  /**\r\n  * @dev Investor will actually be the onwer of LP tokens.\r\n  */\r\n  function withdrawLP() external returns(uint256) {\r\n    // check if this account is registerd\r\n    require(_isReadyToWithdraw(msg.sender), \"Cannot become to LP owner!\");\r\n    uint256 lp = _sendLpToInvestor(msg.sender);\r\n    return lp;\r\n  }\r\n\r\n  /**\r\n  * @dev add liquidity with certain amount paire of tokens\r\n  * @param tokenAmount MetaAx token amount\r\n  * @param ethAmount BNB amount\r\n  */\r\n  function addLiquidity(uint256 tokenAmount, uint256 ethAmount) private returns(uint256 stakedToken, uint256 stakedBNB, uint256 liquidity) {\r\n    // approve token transfer to cover all possible scenarios\r\n    metaAx.approve(address(uniswapV2Router), tokenAmount);\r\n    // add the liquidity\r\n    (stakedToken,stakedBNB,liquidity) = uniswapV2Router.addLiquidityETH{value: ethAmount}(\r\n        address(metaAx),\r\n        tokenAmount,\r\n        0, // slippage is unavoidable\r\n        0, // slippage is unavoidable\r\n        address(this),\r\n        block.timestamp\r\n    );\r\n  }\r\n\r\n  /**\r\n  * @dev Get the remaining time until the end of pre-staking period\r\n  */\r\n  function getPresaleRemainTime() public view returns(uint256) {\r\n    if (endTime < block.timestamp)\r\n      return 0;\r\n    return endTime.sub(block.timestamp);\r\n  }\r\n\r\n  /**\r\n  * @dev Send all LP tokents to every proper owner.\r\n  */\r\n  function withdrawAll() external onlyOwner {\r\n    for(uint i = 0; i < ico.investorCount; i ++) {\r\n      address investor = investorList[i];\r\n      if (_isReadyToWithdraw(investor))\r\n        _sendLpToInvestor(investor);\r\n    }\r\n  }\r\n\r\n  function getLiquidityPairAmount() private view returns(uint256 amountMtax, uint256 amountBnb)  {\r\n    (uint256 token0, uint256 token1, ) = pair.getReserves();\r\n    if (pair.token0() == address(metaAx)) {\r\n      amountMtax = token0;\r\n      amountBnb = token1;\r\n    }\r\n    else {\r\n      amountMtax = token1;\r\n      amountBnb = token0;\r\n    }\r\n  }\r\n}",
  "sourcePath": "D:\\Working\\Freelancing\\3.InterLv\\Project\\metaax-contract\\contracts\\MetaAx_ICO.sol",
  "compiler": {
    "name": "solc",
    "version": "0.6.12+commit.27d51765.Emscripten.clang"
  },
  "schemaVersion": "3.4.4",
  "updatedAt": "2022-02-19T10:12:54.833Z",
  "networkType": "ethereum",
  "devdoc": {
    "kind": "dev",
    "methods": {
      "getPresaleRemainTime()": {
        "details": "Get the remaining time until the end of pre-staking period"
      },
      "isAgent(address)": {
        "details": "Check if this account is agent"
      },
      "lookupPreStake(uint256,uint256)": {
        "details": "Shows the possibility of pre-staking a certain amount of tokens and the BNB required for it..",
        "params": {
          "amount": "Amount of token to pre-stake.",
          "lockPeriod": "Period of time of releasing locked LP tokens. return Amount of BNB and extra token proper to adding liquidity."
        }
      },
      "owner()": {
        "details": "Returns the address of the current owner."
      },
      "queryState()": {
        "details": "Get the state of investor"
      },
      "renounceOwnership()": {
        "details": "Leaves the contract without owner. It will not be possible to call `onlyOwner` functions anymore. Can only be called by the current owner. NOTE: Renouncing ownership will leave the contract without an owner, thereby removing any functionality that is only available to the owner."
      },
      "requestPreStake(uint256,uint256,address)": {
        "details": "Accept request of pre-stake and add liquidity.",
        "params": {
          "amount": "Amount of token to pre-stake.",
          "lockPeriod": "Period of time of releasing locked LP tokens."
        },
        "returns": {
          "_0": "Amount of liquidity for pre-staking"
        }
      },
      "setAgent(address,bool)": {
        "details": "Set/release requested address as the agent"
      },
      "setAgentPolicy(uint8,uint8)": {
        "details": "Set the agnet reward policy.",
        "params": {
          "bnbRewardPercent": "BNB reward percentage for agent",
          "mtaxRewardPercent": "MTAX reward percentage for agent"
        }
      },
      "setDiscountPolicy(uint256,uint256,uint8,uint8,uint8)": {
        "details": "Set the price & discount policy.",
        "params": {
          "discount": "normal discount percentage",
          "discountH": "discount level high",
          "discountL": "discount level low",
          "publishD": "Denominator of publish price",
          "publishN": "Numberator of publish price"
        }
      },
      "setLockPolicy(uint256,uint256,uint256)": {
        "details": "Set the lock policy.",
        "params": {
          "lockH": "lock time level high",
          "lockL": "lock time level low",
          "lockM": "lock time level medium"
        }
      },
      "setPresalePolicy(uint256,uint256)": {
        "details": "Set the presale policy.",
        "params": {
          "cap": "max amount of tokens that can be presaled.",
          "lifetime": "pre-staking duratation, on ellapsed this time, token will be published"
        }
      },
      "transferOwnership(address)": {
        "details": "Transfers ownership of the contract to a new account (`newOwner`). Can only be called by the current owner."
      },
      "withdrawAll()": {
        "details": "Send all LP tokents to every proper owner."
      },
      "withdrawLP()": {
        "details": "Investor will actually be the onwer of LP tokens."
      }
    },
    "version": 1
  },
  "userdoc": {
    "kind": "user",
    "methods": {},
    "version": 1
  }
}